:020000040800F2
:1000000000500020DD2F0008C9050008CB050008BE
:10001000CD050008CF050008D1050008000000004C
:100020000000000000000000000000006115000852
:10003000D30500080000000001160008451600085E
:10004000253000082530000825300008253000083C
:10005000253000082530000825300008253000082C
:10006000253000082530000825300008253000081C
:10007000253000082530000825300008253000080C
:1000800025300008253000082530000825300008FC
:1000900025300008253000082530000825300008EC
:1000A00025300008253000082530000825300008DC
:1000B000D505000825300008253000082530000847
:1000C00025300008253000082530000825300008BC
:1000D00025300008253000082530000825300008AC
:1000E00025300008253000082530000800000000F9
:1000F0000000000000000000000000000000000000
:0C01000000000000000000005FF808F1A3
:1001100010B5054C237833B9044B13B10448AFF341
:1001200000800123237010BD540400200000000053
:100130004C45000808B5034B1BB103490348AFF316
:10014000008008BD00000000580400204C45000855
:10015000844641EA000313F0030349D1403A23D314
:100160000B6803604B6843608B688360CB68C36037
:100170000B6903614B6943618B698361CB69C3611F
:100180000B6A03624B6A43628B6A8362CB6AC36207
:100190000B6B03634B6B43638B6B8363CB6BC363EF
:1001A00040304031403ADBD230320BD30B68036031
:1001B0004B6843608B688360CB68C360103010313C
:1001C000103AF3D20C3205D351F8043B40F8043B0B
:1001D000043AF9D2043208D0D2071CBF11F8013B0F
:1001E00000F8013B01D30B8803806046704700BFD5
:1001F000082A13D38B07B1D010F00303AED0C3F19C
:100200000403D21ADB071CBF11F8013B00F8013BC5
:10021000A4D331F8023B20F8023B9FE7043AD9D33C
:10022000013A11F8013B00F8013BF9D20B78037059
:100230004B7843708B7883706046704708B5002216
:100240004FF40051034800F071FB012002F06CFAFA
:10025000F5E700BF0010014030B583B01C4C2046CC
:1002600002F0A4FE204602F099FF204602F075FF3E
:1002700015E0174D0F230093A3B2202240212846FA
:1002800003F053F8C82000F0D3F9284602F072FFBB
:10029000013C0C2CEDDC0E4802F08DFF08B114245B
:1002A000F7E70B4C204602F058FF0A4B019340231E
:1002B0000093802300221146204602F0FAFE2046D9
:1002C00002F058FF4FF4FA7000F0B2F903B030BDFD
:1002D00078040020F045000810B5FFF7BDFF1F4C63
:1002E000204602F03AFF1E49204603F04BFB1D4B0F
:1002F0001E220021204603F005FB204602F03AFFB3
:100300004FF4FA7000F094F91DE0174B1A8804FBC3
:1003100002F21032154B53F8243092B21449098876
:100320000E4803F0EFFA0134032CEEDD0B4C114BB9
:1003300010226E21204603F0E5FA204602F01AFF53
:10034000012001F049F8054C0B49204603F01AFB47
:10035000204602F002FF0024E6E700BF78040020F8
:10036000C44E000864450008120000200000002070
:100370001000002074450008344A000808B5074AF8
:100380000021074800F0B2FF064B1860064A002122
:10039000064800F0ABFF064B186008BDCC450008CE
:1003A000D902000874040020A84500083D02000896
:1003B00070040020F0B589B00024049405940694DC
:1003C0000794254B9A6942F010029A619A6902F0EB
:1003D00010020092009A9A6942F020029A619A698A
:1003E00002F020020192019A9A6942F008029A6191
:1003F0009A6902F008020292029A9A6942F0040293
:100400009A619B6903F004030393039B134F01223A
:100410004FF40051384600F089FA114E22464FF44D
:100420004041304600F082FA4FF400530493012516
:1004300005950694079504A9384600F065F94FF430
:1004400040430493059506940223079304A930467C
:1004500000F05AF909B0F0BD001002400010014050
:10046000000C014008B50368B3F1804F00D008BD0F
:1004700000F0CCF8FBE772B6FEE700B591B0282299
:10048000002106A803F0A0FF002301930293039329
:1004900004930593012206924FF4803307930A9246
:1004A00002220D920E934FF4E0130F9306A800F072
:1004B00059FA80B90F23019302210291002303937B
:1004C0004FF480620492059301A800F07DFC20B9EE
:1004D00011B05DF804FBFFF7CEFFFFF7CCFF08B5C6
:1004E00000F082F8FFF7C9FFFFF764FF00F0B6FEE7
:1004F000FFF744FF00F0D4FEFEE7000000B583B034
:10050000114B9A6942F001029A619A6902F0010264
:100510000092009ADA6942F08052DA61DB6903F0F6
:1005200080530193019B00220F216FF0010000F026
:10053000A5F8064A536823F0E06343F00073536064
:1005400003B05DF804FB00BF001002400000014052
:1005500000B589B0014600221C2000F08FF81C2055
:1005600000F0C4F8154BDA6942F00102DA61DB6988
:1005700003F001030193019B02A903A800F0F0FC22
:1005800000F0DEFC43000E48A0FB03239B0C013B64
:100590000C484FF08042026040F2E732C260436094
:1005A00000230361836000F02BFE18B1012009B025
:1005B0005DF804FB034800F0F3FCF8E7001002408C
:1005C00083DE1B430C050020FEE7FEE7FEE7FEE7A7
:1005D000FEE7704708B5024800F01AFD08BD00BFED
:1005E0000C0500207047000008B5074A136843F067
:1005F00010031360032000F02FF80F20FFF7A8FF6F
:10060000FFF77CFF002008BD00200240034A11686C
:10061000034B1B780B441360704700BF5405002048
:1006200018000020014B1868704700BF54050020D7
:1006300038B50446FFF7F6FF0546B4F1FF3F02D098
:10064000044B1B781C44FFF7EDFF401BA042FAD37C
:1006500038BD00BF18000020074AD36823F4E063C8
:100660001B041B0C000200F4E060034343F0BF6373
:1006700043F40033D360704700ED00E000B5194B40
:10068000DB68C3F30223C3F1070CBCF1040F28BFDE
:100690004FF0040C03F1040EBEF1060F18D9033B12
:1006A0004FF0FF3E0EFA0CFC21EA0C0199400EFAC5
:1006B00003F322EA0303194300280BDB0901C9B243
:1006C00000F1604000F5614080F800135DF804FB24
:1006D0000023E5E700F00F000901C9B2024B1954ED
:1006E000F4E700BF00ED00E014ED00E0002807DBB8
:1006F00000F01F02400901239340024A42F82030D3
:10070000704700BF00E100E070B582B00024A4464D
:10071000A6E0804DAA4210D007D97F4DAA420CD046
:1007200005F58035AA4208D013E0A5F58015AA4248
:1007300003D005F57025AA4207D18A68002A58D04F
:10074000012A51D04361082403E0A5F58015AA428F
:10075000F3D0BEF1FF0F4ED80646BEF1FF0F4CD8C6
:100760004FEA8C0233680F25954023EA050304FA0B
:1007700002F2134333604B6813F0805F6ED0674B17
:100780009A6942F001029A619B6903F001030193A7
:10079000019B4FEA9C02951C614B53F825600CF0BD
:1007A00003039D000F23AB4026EA03065D4B9842EE
:1007B00029D003F58063984200F08E8003F58063B2
:1007C000984200F08B8003F58063984219D004238F
:1007D0001AE0CC68BDE7CC680434BAE7CC680834CA
:1007E000B7E7CC680C34B4E703610824B1E7002410
:1007F000AFE70424ADE7061DAFE7ACF108029200B5
:10080000B0E7032300E00023AB4033430232444D02
:1008100045F822304B6813F4801F61D0424A936838
:1008200043EA0E0393604B6813F4001F5ED03E4A08
:10083000D36843EA0E03D3604B6813F4003F5BD0E8
:10084000394A536843EA0E0353604B6813F4803F00
:1008500058D0354A136843EA0E0313600CF1010CBB
:100860000A6832FA0CF353D0012303FA0CF302EABC
:10087000030E33EA0202F1D14A68122A3FF649AF69
:10088000122A3FF666AF01A555F822F03B07000893
:10089000D3070008DD070008EF070008530700082A
:1008A00053070008530700085307000853070008C0
:1008B00053070008530700085307000853070008B0
:1008C00053070008530700085307000853070008A0
:1008D000D7070008E3070008012395E7022393E701
:1008E000114A936823EA0E0393609CE70E4AD3688B
:1008F00023EA0E03D3609FE70B4A536823EA0E03F3
:100900005360A2E7084A136823EA0E031360A5E7C1
:1009100002B070BD00002210000031100010024033
:100920000000014000080140000401400AB10161DB
:10093000704709040161704782B0084B1B68084A80
:10094000A2FB03235B0A00FB03F3019300BF019B9F
:100950005A1E0192002BF9D102B0704714000020FA
:10096000D34D6210002800F0F18170B582B00446CA
:10097000036813F0010F2CD0994B5B6803F00C0354
:10098000042B1DD0964B5B6803F00C03082B12D090
:100990006368B3F5803F41D0002B55D103F180430C
:1009A00003F504331A6822F480321A601A6822F4BC
:1009B00080221A6037E08A4B5B6813F4803FE7D0EF
:1009C000874B1B6813F4003F03D06368002B00F0D3
:1009D000BF81236813F0020F75D0814B5B6813F061
:1009E0000C0F5FD07E4B5B6803F00C03082B54D0D8
:1009F0002369002B00F08A807A4B01221A60FFF7EE
:100A000011FE0546764B1B6813F0020F75D1FFF7F8
:100A100009FE401B0228F5D903209EE1704A1368A5
:100A200043F480331360636843B3FFF7FBFD05466F
:100A30006B4B1B6813F4003FCBD1FFF7F3FD401B5A
:100A40006428F5D9032088E1B3F5A02F09D0644BC1
:100A50001A6822F480321A601A6822F480221A601E
:100A6000E1E703F18043A3F53C331A6842F48022A6
:100A70001A601A6842F480321A60D4E7FFF7D2FD98
:100A80000546574B1B6813F4003FA2D0FFF7CAFD81
:100A9000401B6428F5D903205FE1514B5B6813F4D8
:100AA000803FA5D14E4B1B6813F0020F03D0236982
:100AB000012B40F04F814A4A136823F0F803616923
:100AC00043EAC1031360236813F0080F33D0A3690E
:100AD000002B5CD0434B0122C3F88024FFF7A2FD1A
:100AE00005463F4B5B6A13F0020F21D1FFF79AFDD9
:100AF000401B0228F5D903202FE1394A136823F05F
:100B0000F803616943EAC1031360DCE7354B002257
:100B10001A60FFF787FD0546314B1B6813F0020F83
:100B2000D1D0FFF77FFD401B0228F5D9032014E147
:100B30000120FFF701FF236813F0040F00F09680F7
:100B4000274BDB6913F0805F34D1254BDA6942F023
:100B50008052DA61DB6903F080530193019B012528
:100B6000214B1B6813F4807F26D0E368012B3DD016
:100B7000002B53D103F1804303F504331A6A22F0AA
:100B800001021A621A6A22F004021A6233E0154B5B
:100B90000022C3F88024FFF745FD0546104B5B6A31
:100BA00013F0020FC7D0FFF73DFD401B0228F5D917
:100BB0000320D2E00025D3E70B4A136843F4807387
:100BC0001360FFF72FFD0646074B1B6813F4807F69
:100BD000CBD1FFF727FD801B6428F5D90320BCE0AB
:100BE0000010024000004242007000405F4A136A59
:100BF00043F001031362E36833B3FFF713FD0646C6
:100C00005A4B1B6A13F0020F2FD1FFF70BFD801B0D
:100C100041F288339842F3D903209EE0052B09D096
:100C2000524B1A6A22F001021A621A6A22F0040276
:100C30001A62E0E74D4B1A6A42F004021A621A6A1D
:100C400042F001021A62D6E7FFF7ECFC0646474B7A
:100C50001B6A13F0020F08D0FFF7E4FC801B41F27F
:100C600088339842F3D9032077E0E5B9E369002B94
:100C700072D03E4A526802F00C02082A56D0022B6B
:100C800017D03B4B00221A66FFF7CCFC0446374BCB
:100C90001B6813F0007F47D0FFF7C4FC001B02283D
:100CA000F5D9032059E0314AD36923F08053D36149
:100CB000DCE72F4B00221A66FFF7B4FC05462B4BEE
:100CC0001B6813F0007F06D0FFF7ACFC401B022826
:100CD000F5D9032041E0236AB3F5803F1AD02349B8
:100CE0004B6823F47413226A606A024313434B6017
:100CF0001F4B01221A66FFF795FC04461B4B1B682D
:100D000013F0007F0ED1FFF78DFC001B0228F5D9F0
:100D1000032022E0154A536823F40033A1680B43F3
:100D20005360DCE7002018E0002016E0012B16D00D
:100D30000E4B5B6803F48031226A914211D103F4B7
:100D40007013626A93420ED1002006E001207047C2
:100D5000012002E0012000E0002002B070BD01206F
:100D6000FBE70120F9E70120F7E700BF0010024090
:100D7000000042420F4B5B6803F00C02082A01D0CE
:100D80000D487047C3F383420C49885C13F4803FDD
:100D90000BD0084B5B68C3F34043094AD35C064A57
:100DA00002FB00F0B0FBF3F07047064B03FB00F0D2
:100DB000704700BF0010024000127A00084A000885
:100DC000184A000800093D00002800F0A08070B516
:100DD0000D460446524B1B6803F007038B420BD2AF
:100DE0004F4A136823F007030B431360136803F0A3
:100DF00007038B4240F08D80236813F0020F17D059
:100E000013F0040F04D0474A536843F4E06353607F
:100E1000236813F0080F04D0424A536843F4605328
:100E20005360404A536823F0F003A1680B435360BA
:100E3000236813F0010F31D06368012B20D0022BFF
:100E400025D0384A126812F0020F64D035494A683A
:100E500022F0030213434B60FFF7E4FB0646314BDD
:100E60005B6803F00C036268B3EB820F16D0FFF7E8
:100E7000D9FB801B41F288339842F0D9032045E02A
:100E8000284A126812F4003FE0D101203EE0254AD2
:100E9000126812F0007FD9D1012037E0204B1B6887
:100EA00003F00703AB420AD91D4A136823F0070376
:100EB0002B431360136803F00703AB422DD1236863
:100EC00013F0040F06D0174A536823F4E063E16877
:100ED0000B435360236813F0080F07D0114A53687F
:100EE00023F46053216943EAC1035360FFF742FFD3
:100EF0000C4B5B68C3F303130B4AD35CD8400B4B1A
:100F000018600B4B1868FFF723FB002070BD012011
:100F100070470120FAE70120F8E70120F6E700BF5B
:100F20000020024000100240F04900081400002098
:100F30001C000020014B1868704700BF14000020FF
:100F400008B5FFF7F7FF044B5B68C3F30223034ABE
:100F5000D35CD84008BD00BF00100240004A000822
:100F60000F2303600B4B5A6802F0030242605A6879
:100F700002F0F00282605A6802F4E062C2605B68CC
:100F8000DB0803F4E0630361034B1B6803F0070312
:100F90000B607047001002400020024070470000C4
:100FA00090F83D30DBB2012B27D1022380F83D3091
:100FB0000268D36843F00103D3600368114A934287
:100FC00010D0B3F1804F0DD0A2F59432934209D0E6
:100FD00002F58062934205D01A6842F001021A605D
:100FE000002070479A6802F00702062A07D01A68A4
:100FF00042F001021A600020704701207047002073
:10100000704700BF002C0140704770477047704721
:1010100010B5044603681A6912F0020F11D0DA689D
:1010200012F0020F0DD06FF002021A610123037754
:1010300003689B6913F0030F70D0FFF7E6FF0023EE
:10104000237723681A6912F0040F12D0DA6812F0BD
:10105000040F0ED06FF004021A6102232377236875
:101060009B6913F4407F5FD02046FFF7CEFF00233B
:10107000237723681A6912F0080F12D0DA6812F089
:10108000080F0ED06FF008021A610423237723683B
:10109000DB6913F0030F4ED02046FFF7B6FF0023A5
:1010A000237723681A6912F0100F12D0DA6812F051
:1010B000100F0ED06FF010021A61082323772368F7
:1010C000DB6913F4407F3DD02046FFF79EFF0023ED
:1010D000237723681A6912F0010F03D0DA6812F03F
:1010E000010F36D123681A6912F0800F03D0DA6835
:1010F00012F0800F34D123681A6912F0400F03D028
:10110000DA6812F0400F32D123681A6912F0200F0A
:1011100003D0DA6812F0200F30D110BDFFF774FF52
:101120002046FFF773FF8AE72046FFF76DFF204652
:10113000FFF76CFF9BE72046FFF766FF2046FFF7AF
:1011400065FFACE72046FFF75FFF2046FFF75EFF35
:10115000BDE76FF001021A612046FFF783F9C1E78E
:101160006FF080021A61204600F077F8C3E76FF055
:1011700040021A612046FFF74AFFC5E76FF02002E0
:101180001A61204600F068F8C7E7000003681B4AB0
:1011900090420AD0B0F1804F07D0A2F5943290422D
:1011A00003D002F58062904203D123F070034A68B5
:1011B0001343124A90420AD0B0F1804F07D0A2F5F3
:1011C0009432904203D002F58062904203D123F41E
:1011D0004073CA68134323F080034A6913430360D2
:1011E0008B68C3620B688362044B984202D0012370
:1011F000436170470B690363F9E700BF002C0140AE
:1012000040B310B5044690F83D30F3B1022384F8A2
:101210003D30214651F8040BFFF7B8FF012384F855
:10122000463084F83E3084F83F3084F8403084F80B
:10123000413084F8423084F8433084F8443084F8F4
:10124000453084F83D30002010BD80F83C30FFF779
:10125000A5FEDBE70120704770477047EFF3058379
:1012600093B9EFF3108393B90C4B1868022804D09C
:1012700080B90A4B01221A607047EFF31183002BEB
:10128000F6D06FF0050070476FF0050070476FF003
:10129000050070474FF0FF30704700BFB4070020D3
:1012A00008B5EFF30583B3B9EFF31083B3B90E4B71
:1012B0001B68022B08D0012B13D10B4B02221A60A2
:1012C00001F0CEF8002008BDEFF31182002AF2D021
:1012D0006FF00500F7E76FF00500F4E76FF0050029
:1012E000F1E74FF0FF30EEE7B4070020F0B587B02C
:1012F00000240494EFF30584002C43D1EFF3108312
:10130000002B3FD1334B1B68022B16D0002839D05D
:1013100000238DF8173062B3156895B1936903B94E
:1013200018235C1E372C51D8546814F0010F4FD18C
:1013300056694EB14FEA960C08E0EFF311830BBBF0
:10134000E4E70DF11705E9E74FF0800C94682CB144
:10135000D7685B2F02D9176907B1B6B914B14FF03E
:10136000FF340CE0D46894B914699CB14FF0FF3499
:1013700005E0002418234FF0800C0DF11705012C17
:101380000AD0ACB1049807B0F0BD0124F7E74FF0E4
:10139000FF34F4E70024F2E71469926802920194A2
:1013A00000930B466246294600F0ECFF0490E9E703
:1013B00004AA019200930B461FFA8CF2294601F011
:1013C0001BF80128DED000230493DBE70020DAE7D6
:1013D0000020D8E7B407002008B5EFF30583A3B9D0
:1013E000EFF31083A3B90C4B1B68022B02D040B95A
:1013F000002008BDEFF31183002BF8D06FF005003B
:10140000F7E701F091F90020F3E76FF00500F0E74E
:101410006FF00500EDE700BFB4070020034B036049
:10142000034B0B6080231360704700BF58070020F8
:1014300058050020034B0360034B0B604FF480738F
:1014400013607047B80B0020B807002000F10803B4
:1014500043604FF0FF328260C3600361002303608A
:10146000704700230361704743684B609A688A6045
:10147000516099600861036801330360704730B4BC
:101480000D68B5F1FF3F11D000F108031C465B6801
:101490001A68AA42FAD963684B6099608C606160EF
:1014A000086103680133036030BC70470469F2E7E8
:1014B0000369416882688A60416851605A68824263
:1014C00006D0002202611A68013A1A601868704753
:1014D00082685A60F5E7000082B0002301930D4B4B
:1014E0001B68B3F1FF3F08D04FF0500383F311881E
:1014F000BFF36F8FBFF34F8FFEE74FF0500383F3BF
:101500001188BFF36F8FBFF34F8F019B002BFCD06F
:1015100002B070472000002006480068006880F391
:10152000088862B661B6BFF34F8FBFF36F8F00DFDD
:1015300000BF000008ED00E04FF0807340F8043C6D
:1015400021F0010140F8081C034B40F80C3C40F826
:10155000202C4038704700BFD9140008000000005C
:10156000074B19680868B0E8F00F80F30988BFF3EB
:101570006F8F4FF0000080F311884EF00D0E704712
:10158000741800204FF0500383F31188BFF36F8F5E
:10159000BFF34F8F0B4A136801331360012B00D048
:1015A00070474FF0E023D3F8043D13F0FF0FF7D05E
:1015B0004FF0500383F31188BFF36F8FBFF34F8F4A
:1015C000FEE700BF20000020094B1B6843B94FF025
:1015D000500383F31188BFF36F8FBFF34F8FFEE784
:1015E000013B034A13600BB983F31188704700BFB6
:1015F00020000020000000000000000000000000AB
:10160000EFF30980BFF36F8F0D4B1A6820E9F00FDD
:1016100010602DE908404FF0500080F3118801F070
:10162000A9F84FF0000080F31188BDE80840196860
:101630000868B0E8F00F80F30988BFF36F8F704738
:101640007418002008B54FF0500383F31188BFF3DE
:101650006F8FBFF34F8F00F05FFF28B14FF0E02393
:101660004FF08052C3F8042D002383F3118808BD86
:101670004FF0E022002313619361054B1B6805497D
:10168000A1FB03139B09013B5361072313617047BF
:1016900014000020D34D621010B582B02A4B1A7886
:1016A000D2B20192FF221A701B78DBB28DF80330A0
:1016B0009DF8033003F05003244A1370244B072293
:1016C0001A6009E0224A1368013B13609DF8033059
:1016D0005B00DBB28DF803309DF8033013F0800F10
:1016E000F0D11B4B1B68032B08D04FF0500383F342
:1016F0001188BFF36F8FBFF34F8FFEE71B02144AB1
:10170000136003F4E0631360019BDBB20E4A1370B5
:101710004FF0E023D3F8202D42F47002C3F8202DBF
:10172000D3F8202D42F07042C3F8202DFFF7A0FF20
:101730000024084B1C60FFF7EFFE01F01BF8FFF7D9
:10174000CBFE204602B010BD00E400E0140C0020E7
:10175000180C002020000020EFF305830F2B0FD979
:10176000114A9B5CDBB2114A12789A4208D94FF0B9
:10177000500383F31188BFF36F8FBFF34F8FFEE7E2
:101780004FF0E023D3F80C3D03F4E063084A1268FD
:10179000934208D94FF0500383F31188BFF36F8F42
:1017A000BFF34F8FFEE77047F0E300E0140C00201A
:1017B000180C0020124A12F0070F1ED0D11D21F084
:1017C0000701C1F5406313440A460E480260002138
:1017D00041601344083B23F007030B480360596042
:1017E0001960991A51601360084B1960084B196011
:1017F000084B4FF000421A6070474FF44063E4E733
:10180000200C00202C1800201C0C00202818002080
:101810002418002020180020154B1A461B6883420C
:10182000FBD3516802EB010C844509D0416800EB01
:10183000010C634509D00360904218D010607047D6
:101840004068014451601046F0E710B4094C246828
:10185000A3420AD05B681944416013681B680360A7
:10186000904200D0106010BC70470460F8E77047E9
:101870002C1800201C0C002070B5054600F03EFE20
:10188000344B1B68A3B1344B1B681D424AD135B1A0
:10189000083515F0070F02D025F007050835002D93
:1018A00042D02E4B1B68AB424DD32D4A146804E046
:1018B000FFF780FFE7E722461C466368AB4202D28F
:1018C0002368002BF7D1234B1B68A3423DD0166839
:1018D00008362368136063685B1B102B10D96019EE
:1018E00010F0070F08D04FF0500383F31188BFF3B7
:1018F0006F8FBFF34F8FFEE743606560FFF78CFF8C
:10190000626816490B689B1A0B60164909688B427E
:1019100001D214490B60104B1B6813436360002312
:10192000236002E0002600E0002600F081FE16F0B1
:10193000070F0CD04FF0500383F31188BFF36F8F64
:10194000BFF34F8FFEE70026EFE70026EDE73046B6
:1019500070BD00BF1C0C002020180020241800209F
:101960002C1800202818002080B338B50446A0F1B8
:10197000080550F8043C164A1268134208D14FF08B
:10198000500383F31188BFF36F8FBFF34F8FFEE7D0
:1019900050F8081C41B14FF0500383F31188BFF396
:1019A0006F8FBFF34F8FFEE723EA020340F8043C3A
:1019B00000F0A4FD54F8041C064A13680B4413609D
:1019C0002846FFF729FF00F033FE38BD704700BFFF
:1019D000201800202418002010B50446FFF7D2FD7F
:1019E000A26BE36B9A4204D00024FFF7EDFD204682
:1019F00010BD0124F9E710B50446FFF7C3FDA36B42
:101A000023B90124FFF7E0FD204610BD0024F9E7CB
:101A100070B504461546866B026C5AB903681BB153
:101A200000200136A66370BD406800F0CBFF0023A4
:101A30006360F6E76DB98068FEF78AFB226CA368E5
:101A40001344A3606268934219D32368A3602846B5
:101A5000E7E7C068FEF77CFB226C5142E3689B1A03
:101A6000E3602268934202D263680B44E360022D74
:101A700001D00020D5E726B1013E0020D1E728465D
:101A8000CFE70020CDE708B50346026C62B10846F7
:101A9000D9681144D960D3F804C0614501D31968ED
:101AA000D960D968FEF754FB08BD38B50546FFF785
:101AB00069FD95F8454064B201E0013C64B2002C38
:101AC0000ADD6B6A43B105F1240000F0D1FE002865
:101AD000F3D000F061FFF0E7FF2385F84530FFF712
:101AE00073FDFFF74FFD95F8444064B201E0013CFF
:101AF00064B2002C0ADD2B6943B105F1100000F03F
:101B0000B7FE0028F3D000F047FFF0E7FF2385F889
:101B10004430FFF759FD38BD38B5E0B10D460446F5
:101B2000FFF730FD2368E26B216C01FB023060603F
:101B30000020A063A360013A02FB0133E360FF23AE
:101B400084F8443084F84530FDB9236963B9FFF760
:101B50003BFD012038BD4FF0500383F31188BFF3E4
:101B60006F8FBFF34F8FFEE704F1100000F080FE8F
:101B70000028ECD04FF0E0234FF08052C3F8042D42
:101B8000BFF34F8FBFF36F8FE1E704F11000FFF752
:101B90005DFC04F12400FFF759FCD8E738B51D4679
:101BA000049C0B4649B92460E0632364012120466C
:101BB000FFF7B2FF84F84C5038BD2260F4E740B91B
:101BC0004FF0500383F31188BFF36F8FBFF34F8F34
:101BD000FEE710B584B01C46844653B192B189B972
:101BE0004FF0500383F31188BFF36F8FBFF34F8F14
:101BF000FEE74FF0500383F31188BFF36F8FBFF3FD
:101C00004F8FFEE76AB150230393039B502B13D0F1
:101C10004FF0500383F31188BFF36F8FBFF34F8FE3
:101C2000FEE70029EFD04FF0500383F31188BFF394
:101C30006F8FBFF34F8FFEE7012384F84630009487
:101C40009DF818306046FFF7A9FF204604B010BD8C
:101C5000F0B585B0019288B10F461D460446B1B17A
:101C6000022D20D1E36B012B1DD04FF0500383F3E5
:101C70001188BFF36F8FBFF34F8FFEE74FF0500314
:101C800083F31188BFF36F8FBFF34F8FFEE7036CB1
:101C9000002BE5D04FF0500383F31188BFF36F8F13
:101CA000BFF34F8FFEE700F07DFE064658B9019B5B
:101CB000002B48D04FF0500383F31188BFF36F8F90
:101CC000BFF34F8FFEE700263DE02A463946204607
:101CD000FFF79EFE636A7BB948B14FF0E0234FF0F7
:101CE0008052C3F8042DBFF34F8FBFF36F8FFFF700
:101CF0006BFC012005B0F0BD04F1240000F0B8FD3C
:101D00000028F4D04FF0E0234FF08052C3F8042DA8
:101D1000BFF34F8FBFF36F8FE9E7FFF755FC00204C
:101D2000E8E702A800F0EAFD012619E0002384F8A4
:101D3000443021E0002384F8453023E02046FFF7BB
:101D4000B4FE00F075FCFFF71DFCA26BE36B9A423A
:101D5000BBD3022DB9D0019B002BDED0002EE0D0EA
:101D6000FFF732FC00F0CAFBFFF70CFC94F84420AC
:101D700052B2B2F1FF3FD9D094F8452052B2B2F13D
:101D8000FF3FD7D0FFF720FC01A902A800F0C2FD59
:101D9000D8B92046FFF720FE0028CFD0019904F1E2
:101DA000100000F031FD2046FFF77FFE00F040FC00
:101DB0000028C8D14FF0E0234FF08052C3F8042D23
:101DC000BFF34F8FBFF36F8FBDE72046FFF76DFE68
:101DD00000F02EFC00208DE72DE9F84390B10F466E
:101DE00016461C460546B1B1022C20D1EB6B012BE7
:101DF0001DD04FF0500383F31188BFF36F8FBFF3F3
:101E00004F8FFEE74FF0500383F31188BFF36F8FBE
:101E1000BFF34F8FFEE7036C002BE5D04FF050036C
:101E200083F31188BFF36F8FBFF34F8FFEE7FFF788
:101E300093FCEFF311894FF0500383F31188BFF344
:101E40006F8FBFF34F8FAA6BEB6B9A4206D3022CB6
:101E500004D0002089F31188BDE8F88395F8458007
:101E60004FFA88F8224639462846FFF7D1FDB8F1E7
:101E7000FF3F06D008F101035BB285F84530012031
:101E8000E8E76B6A0BB90120E4E705F1240000F0F4
:101E9000EFFC18B126B101203060DBE70120D9E763
:101EA0000120D7E7F0B585B0019290B10F46044606
:101EB000C1B100F077FD064600BB019B002B5ED050
:101EC0004FF0500383F31188BFF36F8FBFF34F8F31
:101ED000FEE74FF0500383F31188BFF36F8FBFF31A
:101EE0004F8FFEE7036C002BE3D04FF0500383F3DA
:101EF0001188BFF36F8FBFF34F8FFEE700263EE0E0
:101F000039462046FFF7BFFD013DA563236923B98C
:101F1000FFF75AFB012005B0F0BD04F1100000F0FE
:101F2000A7FC0028F4D04FF0E0234FF08052C3F814
:101F3000042DBFF34F8FBFF36F8FE9E7FFF744FB2B
:101F40000020E8E702A800F0D9FC012621E00023E8
:101F500084F8443029E0002384F845302BE0204603
:101F6000FFF7A3FD00F064FB09E02046FFF79DFDAD
:101F700000F05EFB2046FFF73EFD00283FD1FFF753
:101F800001FBA56B002DBBD1019B002BD6D0002EF1
:101F9000D8D0FFF719FB00F0B1FAFFF7F3FA94F885
:101FA00044305BB2B3F1FF3FD1D094F845305BB21F
:101FB000B3F1FF3FCFD0FFF707FB01A902A800F064
:101FC000A9FC0028D1D12046FFF715FD0028C6D076
:101FD000019904F1240000F017FC2046FFF765FD8D
:101FE00000F026FB0028CAD14FF0E0234FF08052CA
:101FF000C3F8042DBFF34F8FBFF36F8FBFE70020EF
:1020000089E700000023072B0CD8074A52F8332039
:102010000AB10133F7E7044A42F8331002EBC30375
:1020200058607047704700BF3418002070B50446F0
:102030000D461646FFF7A6FA94F844305BB2B3F1AA
:10204000FF3F0DD094F845305BB2B3F1FF3F0BD0AA
:10205000FFF7BAFAA36B5BB12046FFF726FD70BD10
:10206000002384F84430EDE7002384F84530EFE79F
:102070003246294604F1240000F0DEFBECE70000C4
:10208000084B1B681B6823B9074B4FF0FF321A60DF
:102090007047044B1B68DB68DB685A68024B1A60A8
:1020A000704700BF78180020241D00202DE9F0475C
:1020B00080460D4617469946089EDDF824A00A9CE6
:1020C0009200A521206B02F07FF9236B07F180427B
:1020D000013A03EB820727F007074FF0000CBCF131
:1020E0000F0F0BD815F80C2004EB0C0383F83420E9
:1020F00015F80C3013B10CF1010CF0E7002384F853
:102100004330372E00D93726E662E6640025256580
:10211000201DFFF7A6F904F11800FFF7A2F92461CA
:10212000C6F13806A6616462656584F858504A466F
:1021300041463846FFF700FA2060BAF1000F01D09F
:10214000CAF80040BDE8F08738B5002407E004EB8A
:10215000840293000E481844FFF778F90134372CB5
:10216000F5D90C4D2846FFF771F90B4C2046FFF7C7
:102170006DF90A48FFF76AF90948FFF767F9094856
:10218000FFF764F9084B1D60084B1C6038BD00BFA9
:1021900080180020F81C00200C1D00202C1D0020A1
:1021A000581D0020441D0020781800207C180020B5
:1021B00010B50446FFF7E6F9224A136801331360AD
:1021C000214B1B685BB1214B1B686BB91E4B1B6815
:1021D000DA6AE36A9A4207D81B4B1C6004E01A4B88
:1021E0001C601368012B29D0194A1368013313604E
:1021F0006364E06A174B1B68984201D9154B18605D
:1022000000EB8000211D144B03EB8000FFF72CF93D
:10221000FFF7DAF90D4B1B687BB10B4B1B68DA6AD1
:10222000E36A9A4209D24FF0E0234FF08052C3F89C
:10223000042DBFF34F8FBFF36F8F10BDFFF784FFE7
:10224000D2E700BFE01C002074180020401D0020D1
:10225000F01C0020F41C00208018002010B504465B
:1022600090F8593063B1012B11D0022B0ED04FF0F2
:10227000500383F31188BFF36F8FBFF34F8FFEE7D7
:10228000006BFFF771FB2046FFF76EFB10BDFFF7F9
:102290006BFBFBE70F4B1B68D3B110B5FFF772F96F
:1022A0000D4BDB68DC68201DFFF702F90B4A136851
:1022B000013B1360074A1368013B1360FFF784F981
:1022C0002046FFF7CBFF034B1B68002BE6D110BD68
:1022D000704700BFE41C0020581D0020E01C0020B7
:1022E00008B5FFF7D7FF074B1B68012BF9D94FF053
:1022F000E0234FF08052C3F8042DBFF34F8FBFF39C
:102300006F8FEEE78018002070B504460D46174B1E
:102310001E68174B18680430FFF7CAF8B4F1FF3F86
:102320000DD03444124B1B685C60A64210D9114B8F
:1023300018680F4B19680431FFF7A1F870BD002D24
:10234000EFD00B4B196804310B48FFF78DF8F5E718
:102350000A4B1868064B19680431FFF790F8084BD0
:102360001B68A342EAD9064B1C60E7E76C1D0020FE
:10237000741800207C180020441D002078180020CC
:10238000241D002030B587B00B9C7CB10C9DB5B1ED
:102390005C250495049D5C2D1AD04FF0500383F307
:1023A0001188BFF36F8FBFF34F8FFEE74FF05003DD
:1023B00083F31188BFF36F8FBFF34F8FFEE74FF0AA
:1023C000500383F31188BFF36F8FBFF34F8FFEE786
:1023D0000C9D2C63022485F8594000240394029537
:1023E00005AC01940A9C0094FFF760FE0C98FFF77F
:1023F000DFFE059807B030BD2DE9F04385B00746F4
:10240000884614461E469000FFF736FA00B3814610
:102410005C20FFF731FA0546B0B1C0F83090E5B165
:10242000002385F85930039302950D9B01930C9B73
:1024300000933346224641463846FFF737FE28468A
:10244000FFF7B6FE012005E04846FFF78DFAE6E704
:102450004FF0FF3005B0BDE8F0834FF0FF30F9E7F3
:1024600010B588B000240594069407AA06A905A80B
:10247000FEF7D4FF059B0293069B0193009423462D
:10248000079A18491848FFF77DFF184B186040B1AC
:1024900000F04CFB012806D0B0F1FF3F18D008B087
:1024A00010BD0020F6E74FF0500383F31188BFF30F
:1024B0006F8FBFF34F8F0E4B4FF0FF321A600D4BF3
:1024C00001221A600C4B00221A60FFF7E5F8E6E7DC
:1024D0004FF0500383F31188BFF36F8FBFF34F8F1B
:1024E000FEE700BF1C4A0008E1220008201D002072
:1024F000241D0020401D00206C1D0020024A13688E
:1025000001331360704700BFEC1C0020014B1868BA
:10251000704700BF6C1D0020F8B53A4B1B68002BBC
:1025200064D1394B1D6801351D60C5B9374B1B6837
:102530001B6843B14FF0500383F31188BFF36F8FD3
:10254000BFF34F8FFEE7314A1168314B18681060B6
:102550001960304A136801331360FFF791FD2E4B69
:102560001B68AB4238D900272C4B1B68DB6A03EB96
:1025700083039A002A4B9B58012B3CD901273AE050
:102580000127224B1B681B6843B3204B1B68DB6889
:10259000DC6863689D4226D3261D3046FEF788FF1F
:1025A000A36A1BB104F11800FEF782FFE36A1D4A1B
:1025B0001268934201D91B4A136003EB83039A000C
:1025C000314617481044FEF74FFFE26A134B1B6871
:1025D000DB6A9A42D4D2D4E70027D2E70E4B4FF001
:1025E000FF321A60C0E70C4A1360BDE70E4A136859
:1025F0000133136000270D4B1B6803B101273846D8
:10260000F8BD00BFEC1C00206C1D002078180020D5
:102610007C180020281D0020241D00207418002094
:1026200080180020F41C0020E81C0020701D0020F1
:1026300038B5354B1B6843B94FF0500383F311880D
:10264000BFF36F8FBFF34F8FFEE7FEF79BFF2E4B5D
:102650001A68013A1A601B68002B4FD12B4B1B687C
:102660000BB900244BE00024294B1B681BB3284BFB
:10267000DB68DC6804F11800FEF71AFF251D284608
:10268000FEF716FFE06A234B1B68984201D9214BE5
:10269000186000EB800029461F4B03EB8000FEF71B
:1026A000E3FEE26A1D4B1B68DB6A9A42DCD31C4BDB
:1026B00001221A60D8E70CB1FFF7E2FC194B1C6845
:1026C00084B9174B1C68D4B14FF0E0234FF080520F
:1026D000C3F8042DBFF34F8FBFF36F8F01240EE0BB
:1026E000013C07D0FFF718FF0028F9D00C4B01225E
:1026F0001A60F5E70B4B00221A60E2E70024FEF7B0
:1027000063FF204638BD00BFEC1C0020E01C002009
:102710002C1D0020F41C00208018002074180020BC
:10272000701D0020E81C002010B5A8B10446104B15
:102730001B6843B14FF0500383F31188BFF36F8FD1
:10274000BFF34F8FFEE7FFF7D9FE00212046FFF7CA
:10275000DBFDFFF76DFF48B94FF0E0234FF08052EB
:10276000C3F8042DBFF34F8FBFF36F8F10BD00BFB1
:10277000EC1C00201F4B1B681BB11F4B01221A6071
:1027800070471D4B00221A601C4B1B6803EB830132
:102790008A001B498A585AB90BB1013BF6E74FF042
:1027A000500383F31188BFF36F8FBFF34F8FFEE7A2
:1027B00003EB830082000A4450684068506003EBDA
:1027C000830C4FEA8C020832114488420BD003EB91
:1027D000830291000A4A0A445268D168094A11608A
:1027E000064A13607047406862469100044A0A44F2
:1027F0005060ECE7EC1C0020701D0020F41C002051
:10280000801800207418002058B110B50C46094AF1
:1028100011681831FEF733FE01212046FFF774FDE1
:1028200010BD4FF0500383F31188BFF36F8FBFF3D8
:102830004F8FFEE77418002038B570B10D4614466E
:102840000A4A11681831FEF70FFE0CB14FF0FF3540
:1028500021462846FFF758FD38BD4FF0500383F35B
:102860001188BFF36F8FBFF34F8FFEE774180020FE
:1028700038B5C368DC6824B304F118052846FEF7B0
:1028800017FE184B1B682BBB251D2846FEF710FEB4
:10289000E06A154B1B68984201D9134B186000EB96
:1028A00080002946114B03EB8000FEF7DDFDE26A54
:1028B0000F4B1B68DB6A9A4211D901200D4B18603F
:1028C00038BD4FF0500383F31188BFF36F8FBFF310
:1028D0004F8FFEE729460848FEF7C6FDE7E70020D0
:1028E000EEE700BFEC1C0020F41C00208018002044
:1028F00074180020701D00202C1D0020034B1B6845
:102900000360034B1B684360704700BF281D002015
:102910006C1D0020D8B170B50C46054601B3FEF71A
:1029200031FE1B4B19686B68C81A2268B2F1FF3F71
:1029300027D0184E3668D5F800C0B44501D08B4278
:1029400024D9824215D80023236001241AE04FF0D5
:10295000500383F31188BFF36F8FBFF34F8FFEE7F0
:102960004FF0500383F31188BFF36F8FBFF34F8F86
:10297000FEE75B1A134423602846FFF7BFFF0024DD
:1029800000E00024FEF720FE204670BD0124F9E798
:102990006C1D0020281D0020014B01221A60704789
:1029A000701D0020054B1B6833B1054B1B680BB134
:1029B000002070470220704701207047401D002012
:1029C000EC1C002000283BD038B504461E4B1B6889
:1029D000834208D04FF0500383F31188BFF36F8F09
:1029E000BFF34F8FFEE7036D43B94FF0500383F3FE
:1029F0001188BFF36F8FBFF34F8FFEE7013B036575
:102A0000C16AC26C91421DD00BB1002038BD051DBA
:102A10002846FEF74DFDE06CE062C0F13803A3618B
:102A20000A4B1B68984201D9084B186000EB8000E4
:102A30002946074B03EB8000FEF716FD0120E5E772
:102A4000002070470020E1E774180020F41C0020EB
:102A500080180020064B1A681368B3FA83F35B09E9
:102A6000036013B9D368186870470020704700BF2F
:102A7000741D002008B54160006191420CD8D21A43
:102A800083699A4201D3012008BD011D094B1868D2
:102A9000FEF7F5FC0020F7E79A4201D2994206D2F0
:102AA000011D054B1868FEF7EAFC0020ECE7012049
:102AB000EAE700BF781D0020741D002030B583B008
:102AC000FEF760FD114B1B681BB1FEF77DFD03B0E7
:102AD00030BD0F4D2846FEF7B9FC0E4C2046FEF7E0
:102AE000B5FC0D4B1D600D4B1C60002300930C4B7F
:102AF0000C4A10210A20FFF762F8044B18600028E6
:102B0000E3D00949FFF77EFADFE700BF981E0020F7
:102B10001C1E0020301E0020741D0020781D002087
:102B2000481E00207C1D0020244A000810B588B0F3
:102B3000FFF7C4FF124B1B68CBB100240594069429
:102B400007AA06A905A8FEF775FC059B0293069B3C
:102B50000193022300932346079A0A490A48FFF784
:102B600011FC0A4B186010B1012008B010BD4FF0E5
:102B7000500383F31188BFF36F8FBFF34F8FFEE7CE
:102B8000981E00202C4A00086D2E00089C1E002074
:102B9000B8B19C4603461848006858B300B585B0E4
:102BA00000910192029305291CDCFFF7FBFE02282D
:102BB00010D000231A4669460F480068FFF748F80E
:102BC00015E04FF0500383F31188BFF36F8FBFF30D
:102BD0004F8FFEE70023069A694607480068FFF713
:102BE00037F804E0002362466946FFF7F5F805B0C0
:102BF0005DF804FB00207047981E002070B582B07D
:102C00001A4B1B681A6852B3DB681E68DC68251D06
:102C10002846FEF74DFC636A20469847E369012B7E
:102C2000EED1A36933449E4207D2636024612946F2
:102C30000E4B1868FEF723FCE2E7002100910B46DB
:102C400032462046FFF7A4FF0028D9D14FF05003A9
:102C500083F31188BFF36F8FBFF34F8FFEE7044AF2
:102C6000106802490860136002B070BD741D002036
:102C7000781D002038B50546FFF748FC0446074B91
:102C80001B68834205D800232B60044B1C60204640
:102C900038BDFFF7B3FF01232B60F6E7441E002089
:102CA00070B582B006460D4614490968C968CC68FB
:102CB000201DFEF7FDFBE169012904D0636A20466F
:102CC000984702B070BDA16933462A463144204678
:102CD000FFF7D0FE0028F1D0002100910B463246CC
:102CE0002046FFF755FF0028E8D14FF0500383F34B
:102CF0001188BFF36F8FBFF34F8FFEE7741D002065
:102D000070B582B006460C46FFF7F8FB01A8FFF746
:102D1000B1FF019B2BBB05460CB9B0421AD22CB1B6
:102D2000124B1B681C68B4FA84F464092246711BB8
:102D30000F4B1868FFF77AF9FFF77AFC98B94FF054
:102D4000E0234FF08052C3F8042DBFF34F8FBFF341
:102D50006F8F08E0FFF76CFC29463046FFF7A0FFB5
:102D600001E0FFF765FC02B070BD00BF781D0020D8
:102D7000981E002010B588B002E0049B002B0FDAEB
:102D8000002204A9384B1868FFF78CF8002869D096
:102D9000049B002BF1DA07990698059B9847ECE70E
:102DA000069C636913B1201DFEF782FB03A8FFF7A1
:102DB00061FF049B092BE3D801A252F823F000BF66
:102DC000E92D0008E92D0008E92D0008812D0008F3
:102DD0002F2E0008552E0008E92D0008E92D0008C7
:102DE000812D00082F2E0008059BA1690246194479
:102DF0002046FFF73FFE0028C2D0636A204698476E
:102E0000E369012BBCD1A269002100910B46059812
:102E100002442046FFF7BCFE0028B1D14FF050031A
:102E200083F31188BFF36F8FBFF34F8FFEE70599D0
:102E3000A16131B10346024601442046FFF71AFE64
:102E40009EE74FF0500383F31188BFF36F8FBFF3FA
:102E50004F8FFEE794F82C30002B91D12046FEF7DF
:102E600083FD8DE708B010BD981E002000B583B02B
:102E700001A8FFF7EFFD0199FFF742FFFFF77AFF87
:102E8000F6E7000030B587B0002402940394049460
:102E900005940F4B9A6942F008029A619B6903F00E
:102EA00008030193019B0B4D22464FF440412846F5
:102EB000FDF73CFD4FF44043029301230393049438
:102EC0000223059302A92846FDF71EFC07B030BD7A
:102ED00000100240000C014010B44FF0E022546991
:102EE0000B4B1B6800FB03FC9369002104E0E01A14
:102EF00002441144614509D21A464FF0E0239B6910
:102F00009A42FAD0F3D9D21A1144F3E710BC7047B1
:102F1000A01E002008B52839252940D8DFE801F097
:102F200013171515151B3F3F3F3F3F3F3F3F3F3FA7
:102F30003F3F3F3F3F3F3F3F3F3F3F3F3F3F3F3FA1
:102F40003F3F3F3F2331FFF79DFF012008BD104663
:102F5000FDF76EFBF9E7022A03D80520FFF7BCFF57
:102F6000F3E70120FAE72AB94FF400410E48FDF7D4
:102F7000DDFCEAE701224FF400410B48FDF7D6FCE7
:102F8000E3E72AB94FF480410748FDF7CFFCDCE7BF
:102F900001224FF480410448FDF7C8FCD5E7012326
:102FA00080F82730D1E700BF000C014010B504467F
:102FB000074B084A084900F0E3F9204601F0A0F960
:102FC0000021204601F0A3F9204600F0C6F810BD0C
:102FD000152F0008373F0008DC540008FDF702FBFE
:102FE0000B480C490C4A002302E0D458C450043367
:102FF000C4188C42F9D3094A094C002301E013603C
:103000000432A242FBD301F0BBF9FDF768FA704726
:1030100000000020540400206855000854040020DB
:10302000AC220020FEE72DE9F04F83B007460E46A4
:1030300091461D46DDF8308090F892A0CB18541CC4
:10304000A4B200949BB200F073FD78B3BAFA8AFB85
:103050004FEA5B1B012414E087F892A00023009341
:1030600001234A463146384600F0CCFC0136B6B260
:10307000640014F0FF0402D108F101080124013DAD
:10308000ADB28DB198F800302342E5D197F8913078
:10309000002BEBD187F892B0009301234A463146CA
:1030A000384600F0AFFCE1E787F892A003B0BDE836
:1030B000F08F2DE9F04782B08246884614461F46BD
:1030C000BDF828500B9E03F10709C9F3CC0903EBA7
:1030D000010C53199BB200931FFA8CF300F028FDEA
:1030E00060B90DE000963B46224641465046FFF748
:1030F0009AFF4E440134A4B2013DADB2002DF1D18E
:1031000002B0BDE8F08710B582B003681B7C446B49
:1031100003FB01F1C90089B221440091002101F0B3
:10312000D7F802B010BD2DE9F041064690F838708E
:1031300090F83950036893F8118000242A462146FC
:103140003046FFF7E0FF0134E4B20135EDB2A742AB
:1031500001D9A845F2D8BDE8F08108B503681B7C09
:1031600090F8382003FB02F2D2000021406B01F0FE
:103170002BF908BD10B50446FFF7D5FF204601F036
:10318000CDF810BD10B5044680F83910036B1B68EC
:103190009847236B5B682046984710BD10B50446DE
:1031A00090F8933023B900212046FFF7EBFF10BDC4
:1031B000FFF7D3FFF7E738B50446FFF7B4FF94F8FD
:1031C000393094F838501D44EDB223685B7CAB4233
:1031D00008D994F8933053B929462046FFF7D2FF17
:1031E000012038BD204601F099F80020F9E720467B
:1031F000FFF7B3FFF0E72DE9F84380460F4691460D
:103200001C46BDF820609DF8245015F0010F0AD12E
:1032100015F0020F16D115F0080F24D115F0040F88
:1032200032D1BDE8F883B21A591892B289B200F0CF
:103230004EFCF21B04EB090192B289B2404600F049
:1032400046FCE5E7A6EB0902E11B92B289B24046D3
:1032500000F03DFCF21BA4EB090192B289B240469A
:1032600000F035FCD7E706EB0902E11992B289B20A
:10327000404600F02CFCBA1904EB090192B289B265
:10328000404600F024FCC9E706EB0902E11B92B2BC
:1032900089B2404600F01BFCBA19A4EB090192B2B6
:1032A00089B2404600F013FCBBE72DE9F04F85B032
:1032B0000390894692461E469DF838B0C3F101043A
:1032C00024B2C3EBC3384FEA48080FFA88F8CDF8A8
:1032D00004B000920B4632460021FFF78CFF002518
:1032E00001271AE0013EB6B208F102081FFA88F37E
:1032F0000FFA88F81C4424B20135ADB20237BBB2D4
:103300003FB21C4424B2CDF804B0CDF800A04B4627
:10331000324629460398FFF76EFFB54202D2002CD1
:10332000E0DAE9E705B0BDE8F08F2DE9F04182B0C1
:1033300080460E4617461D46CB189BB2AC18A4B269
:103340000133521B491B0134A4B200949BB292B2C8
:1033500089B200F0EDFB10B902B0BDE8F0819DF834
:10336000203000932B463A4631464046FFF79DFFFA
:10337000F2E700000823037000487047A41E0020F5
:1033800030B585B004460D4600931346084A0949F6
:1033900000F0E6FF0DF10F00FFF7ECFF014600958E
:1033A000054B9DF80F20204600F0BBFC05B030BD5A
:1033B00079400008254200085D3B0008405C7047EA
:1033C0004218435C507800EB032080B27047002025
:1033D000704738B504460D4600212846FFF7EEFF3A
:1033E000207001212846FFF7E9FF6070022128467E
:1033F000FFF7E4FFA07003212846FFF7DFFFE0702E
:1034000004212846FFF7DAFF207105212846FFF73F
:10341000D5FF607106212846FFF7D0FFA071072174
:103420002846FFF7CBFFE07108212846FFF7C6FFCB
:10343000207209212846FFF7C1FF60720A21284641
:10344000FFF7BCFFA0720B212846FFF7B7FFE07221
:103450000C212846FFF7B2FF20730D212846FFF705
:10346000ADFF60730E212846FFF7A8FFA0730F2160
:103470002846FFF7A3FFE07310212846FFF79EFFC1
:10348000207411212846FFF79BFF608213212846F4
:10349000FFF796FFA08215212846FFF791FFE082F3
:1034A00038BD10B590F80CC00468227842FA0CFEC2
:1034B0005FFA8EF20CEB0103DBB2072B0DD9CCF1D6
:1034C000080C5FFA8CFC621C0260627802FA0CF253
:1034D00042EA0E02D2B2083BDBB24FF0FF3C0CFADC
:1034E00001F1037322EA010010BD38B5044600F172
:1034F00060050166002380F86C3090F8781028464B
:10350000FFF7CFFF84F86A0094F879102846FFF798
:10351000C8FF84F86B0094F8923084F86E30B3FAE8
:1035200083F35B0984F86F3038BD10B50C46FFF7A4
:10353000B8FF013CE4B2012303FA04F4001B40B2DB
:1035400010BD012B08D0022B09D013B1401A80B254
:103550007047104480B27047084480B27047801AA8
:1035600080B27047012B08D0022B09D013B1104450
:1035700080B27047084480B27047801A80B27047AA
:10358000401A80B270472DE9F04F89B006460C46CC
:10359000079290F968305FFA83FB90F96930DBB2EB
:1035A000039319E0059420E096F86E3086F8923087
:1035B000CDF80080BDF814300699304600F022FAAC
:1035C000BC423DD3ABEB05052C44E4B2039B013375
:1035D000DBB203934FF0000B96F96A50EDB2A5EB06
:1035E0000B07FFB2BC42DDD30597B6F866A04FFAD1
:1035F0008BF19DF90C9096F8708043464A460491F1
:10360000B6F86400FFF7AEFF069043464A460499B9
:103610005046FFF796FF0246079B002BC4D196F851
:103620006D30002BCCD196F86F3086F89230CDF803
:103630000080BDF814300699304600F0E3F9BFE78A
:103640005C4486F8684086F8699009B0BDE8F08F60
:103650002DE9F04F85B0044600F16005FFF745FF06
:1036600094F96B7094F87A102846FFF75EFF804655
:1036700094F87B102846FFF758FF064694F87C1014
:103680002846FFF752FF039094F96A90B9F1000FB2
:1036900055DD3E44F6B2764276B294F870B05B46A1
:1036A00032464146B4F86400FFF75CFF8246A4F856
:1036B00064005B4632464146B4F86600FFF741FFBE
:1036C0000246A4F86600BBF1030F68D8DFE80BF0F0
:1036D000023B495B1FFA89F353449BB2384480B2E2
:1036E00000905146204600F023FA40B3002384F8AE
:1036F000683084F8693094F876102846FFF7D1FED8
:10370000804694F877102846FFF7CBFE0646002245
:1037100041462046FFF737FF012231462046FFF79A
:1037200032FF01212846FFF7BCFE0028EFD194F9B3
:103730006930BB42DFDB94F86E3084F89230039836
:1037400005B0BDE8F08FAAEB070189B201310AF19B
:1037500001039BB21FFA89F0104480B21FFA81FA6C
:10376000BEE71FFA89F1AAEB010189B201310AF122
:1037700001039BB2C61BB6B20136013290B2B2B29F
:103780001FFA81FAACE70AEB07039BB21FFA89F133
:10379000411A89B20131013290B28AB2A0E7534690
:1037A0009EE770B50E46846D1734FF2913D8602943
:1037B00003D9B0F888301C4406E0402904D9B0F899
:1037C00086301C4400E01C44637803B32278B24284
:1037D000F9D1A01C1CE0B0F88A0004442546002161
:1037E0002846FFF7EDFD044402212846FFF7E8FDD7
:1037F00004358642F3D801E0A3781C44227863782C
:1038000053EA022305D09E42F6D1E01C00E00020DE
:1038100070BD0020FCE710B50446A0F86410A0F8C5
:1038200066201946FFF7BDFF28B101462046FFF785
:103830000FFF80B210BD0020FCE7F8B504460D462E
:1038400016461F4690F87030032B07D8DFE803F0C8
:10385000020D1217C36D98470644B6B23B46324676
:1038600029462046FFF7D7FFF8BDC36D98472D1AAC
:10387000ADB2F3E7C36D9847361AB6B2EEE7C36D43
:1038800098470544ADB2E9E72DE9F04104460F46FB
:1038900016461D4600F072FA4FF0000804E0074497
:1038A000BFB240441FFA80F86368297820469847E1
:1038B0004FF6FF72904222D001354FF6FE729042D1
:1038C000F2D00346324639462046FFF7B6FF94F859
:1038D0007030032BE5D801A252F823F09F3800087E
:1038E000ED380008F3380008F93800080644B6B28D
:1038F000D7E73F1ABFB2D4E7361AB6B2D1E740468F
:10390000BDE8F08110B5024C4460FFF7BDFF10BD6B
:10391000673D0008836D73B390F9812080F88E2095
:1039200090F9823080F88F3090F88D1019B301290A
:1039300014D000B590F97E1090F980C001EB0C0E08
:10394000724505DAC9B25FFA8CF2114480F88E1024
:10395000634501DD80F88FC05DF804FB90F98310AA
:103960008A4201DA80F88E1090F98420934202DDB9
:1039700080F88F2070477047014BC365704700BFC8
:10398000CF330008836D8B4209D010B504468165A2
:103990007430FFF71EFD2046FFF7BCFF10BD7047D7
:1039A00000B5B0F800E0B1F800C0F4441FFA8CFC98
:1039B000E64505D99E4513D203F1FF3C1FFA8CFC66
:1039C0009E450FD294450FD9964500D372469C452B
:1039D00000D8634602809B1A0B8001205DF804FB2F
:1039E0009646EDE70020F9E70020F7E730B583B011
:1039F000C48F121BC46A9DF81850009592B2A0475C
:103A000003B030BD70B584B004469DF82000ADF819
:103A10000E10ADF80C20ADF80A3094F88C305BB382
:103A2000BDF80A3043B3012B03D9022826D003285E
:103A30002DD010F0010534D1B4F84C20BDF80C3075
:103A40009A4219D8B4F84E20934215D2B4F84A30AD
:103A5000B4F848200DF10A010DF10E00FFF7A0FFA8
:103A600050B1236B9E680095BDF80A30BDF80C205C
:103A7000BDF80E102046B04704B070BD8AB2D31A0C
:103A80009BB2ADF80E300133ADF80E30D1E7BDF882
:103A90000C20D31A9BB2ADF80C300133ADF80C30CA
:103AA000C7E7B4F84820BDF80E309A42E4D8B4F81D
:103AB0004A209342E0D2B4F84E30B4F84C200DF1D5
:103AC0000A0103A8FFF76CFF0028CAD1D4E7B0F8B9
:103AD0004C3093420BD8B0F84E30934207D9B0F82F
:103AE00048308B4203D8B0F84A308B4200D8704738
:103AF00000B583B0002300930123FFF783FF03B0D9
:103B00005DF804FB8A4205D2834209D89A4209D95A
:103B100001207047834207D99A4207D90120704794
:103B20000120704700207047002070470020704738
:103B300070B504460D461E46BDF81030B0F84E1064
:103B4000B0F84C00FFF7DEFF38B133462A46B4F830
:103B50004A10B4F84800FFF7D5FF70BD70B59DF866
:103B6000105002F0070E4FF0010C0CFA0EFC5FFA39
:103B70008CFC90F89260012E1AD90024012E19D0E5
:103B800022F007060268127C06FB02F292B2114490
:103B9000426B1144DDB90A782243D2B20A7082EA3C
:103BA0000C0201F8012B013B9BB2002BF3D170BD3D
:103BB0006446E3E74FF0000CE2E701241BE06400F9
:103BC000E4B24FEA4C0C5FFA8CFC002BEFD00A7881
:103BD0002243D2B20A7082EA0C020A700EF101028C
:103BE000013B9BB212F0070EE9D1428F114490F8CD
:103BF0009220012AE1D9012AE7D04FF0010CE4E735
:103C000010B5046890F838108AB2CB008387237C03
:103C1000DB00438790F839C01FFA8CFE4FEACC03D3
:103C2000C387614494F811C0614502DDACEB0E021C
:103C300092B2D20092B2A0F84030A0F842301344C1
:103C4000A0F84230A38AA0F84430E38AA0F84630B6
:103C500010BD08B5FFF7D4FF08BD10B582B004460B
:103C6000B0F856300093B0F85230B0F85420B0F8A5
:103C70005010FFF75DFF20B9002384F88C3002B0AC
:103C800010BD012384F88C30B4F84820B4F85030CB
:103C90009A4201D2A4F84830B4F84A20B4F852301D
:103CA0009A4201D9A4F84A30B4F84C20B4F8543000
:103CB0009A4201D2A4F84C30B4F84E20B4F85630F1
:103CC0009A42DCD9A4F84E30D9E708B50022A0F812
:103CD0004820B0F84420A0F84A20B0F84020A0F8CE
:103CE0004C20B0F84220A0F84E20FFF7B6FF08BDE8
:103CF00010B582B09DF810400094FFF777FE02B037
:103D000010BD08B50022A0F85020A0F854204FF6AE
:103D1000FF72A0F85220A0F85620036B5B6898470A
:103D200008BD70B50446049E00258565C3624163E5
:103D300080F8382080F8395080F86D5080F8915024
:103D400080F88D50012380F8923080F8933006631C
:103D5000336898472046FFF7D4FF2046FFF70CFE54
:103D600084F8705070BD19B10A2904D088B2704728
:103D70004FF6FF7070474FF6FF707047002380F8D2
:103D80002630704708B503685A7B2D2100F0CDFA24
:103D900008BD10B5044601224C2100F0C6FA0122EC
:103DA0004D21204600F0C1FA2046FFF7EBFF10BD81
:103DB00010B5044601224C2100F0B7FA2046FFF767
:103DC000E1FF10BD08B501224D2100F0AEFA08BD9B
:103DD00008B500224D2100F0A8FA08BD10B5044630
:103DE000FFF7F6FF2046FFF7CDFF2046FFF7E0FF85
:103DF0002046FFF7E7FF2046FFF7C4FF002384F8C3
:103E0000253010BD08B500224C2100F08EFA08BD07
:103E100010B5044690F825307BB92046FFF7D2FF55
:103E20002046FFF7D5FF2046FFF7ACFF2046FFF7FF
:103E3000E9FF012384F8253010BDFFF7C3FF2046BA
:103E4000FFF7A0FF2046FFF7B3FFE6E710B50446F3
:103E500059B1FFF7B7FF2046FFF794FF2046FFF761
:103E6000A7FF2046FFF7CEFF10BDFFF7B1FFF2E737
:103E700010B50446FFF7A6FF2046FFF783FF204654
:103E8000FFF796FF2046FFF79DFF2046FFF77AFFDA
:103E90002046FFF7B7FF10BD38B504460D4601F0C8
:103EA0008001FFF7D3FF05F040012046FFF7CEFF6A
:103EB00005F020012046FFF7C9FF05F0100120465C
:103EC000FFF7C4FF05F008012046FFF7BFFF05F02C
:103ED00004012046FFF7BAFF05F002012046FFF774
:103EE000B5FF05F001012046FFF7B0FF2046FFF7C0
:103EF000BFFF38BD10B5134604690A461721A04715
:103F000010BD00B583B08DF807100DF10702012137
:103F1000FFF7F0FF03B05DF804FB10B50469002360
:103F20001A461821A04710BD10B5046900231A468F
:103F30001921A04710BD70B5064614461D46143918
:103F40000C2908D8DFE801F014070710182107072B
:103F5000070707072500002070BD15F8011B304634
:103F6000FFF79AFF013CE4B2002CF6D10120F3E701
:103F7000FFF70FFF0120EFE7FFF74AFF96F8241045
:103F80003046FFF789FF0120E6E7FFF727FF012012
:103F9000E2E70120E0E770B504460D461646FFF75C
:103FA000BCFF40212046FFF7ACFF33462A461721CD
:103FB00020462569A8472046FFF7B6FF70BD10B51B
:103FC0000A46C46800231521A04710BD10B50A4653
:103FD000C46800231621A04710BD10B51346C4685D
:103FE0000A461721A04710BD10B5C46800231A4621
:103FF0001821A04710BD10B5C46800231A46192126
:10400000A04710BD70B582B006460D4616E01529D2
:104010000CD202B070BDFE29FBD122788DF80720AA
:104020002921304600F081F9023507E022788DF829
:104030000720F46800233046A04702352C4614F8C8
:10404000011B1929E7D818290ED21629DFD91729FB
:10405000DFD123788DF807300DF1070201213046BA
:10406000FFF7BBFF0235E9E7F56800231A46304643
:10407000A8472546E2E70000F8B5054614461E4667
:10408000A1F1140CBCF1050F56D8DFE80CF0370392
:10409000181D454A294B1B7873B92846FFF73DFF89
:1040A00000212846FFF72DFF21462846FFF729FF6C
:1040B0000120224B1870F8BDFFF736FFEDE71146DF
:1040C000FFF71FFF0120F6E71C4B1B7853B1FFF7EA
:1040D0002BFF07E0324618212846FFF75CFF183C0B
:1040E000E4B21836182CF5D8324621462846FFF798
:1040F00052FF124B00221A700120DCE790F82430A6
:10410000FF2B05D02F69334622462846B847D2E711
:10411000782380F82430F5E7084B00221A7001203C
:10412000C9E7064B1B7823B9044B00221A70012003
:10413000C1E7FFF7F9FEF7E70020BCE7A422002063
:10414000F8B5064615461C460B39042960D8DFE849
:1041500001F0035F0E21300022B92E49FFF752FF14
:10416000012025E02C49FFF74DFF012020E042B956
:104170002A49FFF747FF33689B7C86F822300120ED
:1041800016E02749FFF73EFF3368DB7C86F82230D4
:1041900001200DE0FFF728FF81213046FFF70FFFD8
:1041A00029463046FFF712FF3046FFF724FF012073
:1041B000F8BDFFF719FF6779FF00FBB296F8227090
:1041C0001F44FFB240213046FFF7F9FE390941F0A4
:1041D00010013046FFF7F3FE07F00F013046FFF7FE
:1041E000F5FEA17941F0B0013046FFF7EFFE2179ED
:1041F000C900226801F0F8013046FFF7EEFE6A1EA2
:1042000012F0FF05F3D13046FFF7F5FE0120CFE7AE
:104210000020CDE73055000838550008E854000864
:10422000F054000838B505460C46FFF789FF90B9F1
:10423000092C0AD00A2C0FD1284600F018F807499B
:104240002846FFF7DFFE012006E00549284600F07A
:1042500009F8012000E0012038BD00BFF854000833
:104260004055000801608B7C80F82230704710B503
:10427000044600231A462821D0F814C0E047002342
:104280001A4614212046D4F80CC0E04701224B21E5
:10429000204600F04AF823681A792921204600F0C8
:1042A00044F800224B21204600F03FF823681A7999
:1042B0002921204600F039F801224B21204600F048
:1042C00034F823685A792921204600F02EF810BDD1
:1042D00010B582B08DF805108DF806208DF80430E9
:1042E000049B009384686B4601220F21A04702B013
:1042F00010BD10B5846800231A460921A04710BDDF
:1043000010B5846800231A460A21A04710BD10B5D5
:104310000A46846800230B21A04710BD10B58468AD
:1043200000231A461021A04710BD10B54469002390
:10433000A04710BD0020704700230360074A826039
:10434000C2600261426180F8233080F826308361C8
:10435000FF2380F8243080F8283070473543000868
:10436000F8B504460F4616461D46FFF7E5FFA76061
:10437000E6602561069B63612046FFF7BAFFF8BD42
:1043800070B50D4E0D4D761BB61006D0002455F8B5
:10439000043B01349847A642F9D1094E094D00F07B
:1043A000D5F8761BB61006D0002455F8043B01342E
:1043B0009847A642F9D170BD5C5500085C550008CD
:1043C000645500085C550008830730B548D0541E7A
:1043D000002A3FD00346CAB201E0013C3AD303F8B9
:1043E000012B9D07F9D1032C2DD9CDB245EA052526
:1043F0000F2C45EA054536D9A4F1100222F00F0C26
:1044000003F1200EE6444FEA121C03F1100242E9C8
:10441000045542E9025510327245F8D10CF10102FF
:1044200014F00C0F03EB021204F00F0C13D0ACF1DC
:10443000040323F003030433134442F8045B934260
:10444000FBD10CF003042CB1CAB21C4403F8012BBD
:104450009C42FBD130BD64461346002CF4D1F9E7F1
:1044600003461446BFE71A46A446E0E7024B13B1E1
:10447000024800F005B87047000000008D440008B5
:10448000002301461A46184600F01AB838B5084B02
:10449000084D5B1B9C1007D0043B1D44013C55F8A4
:1044A00004399847002CF9D1BDE8384000F054B8E1
:1044B0006855000864550008704700BF704700BF8A
:1044C0002DE9F047DFF87CA00646DAF800009846B0
:1044D0000F469146FFF7F0FF1B4B1B68D3F848418E
:1044E00024B365681F2D26DC5EB96B1C0235DAF833
:1044F0000000636044F82570FFF7E0FF0020BDE88E
:10450000F087012304EB8501C1F88890D4F8882155
:10451000AB401A43022EC4F88821C1F80881E4D1C7
:10452000D4F88C211343C4F88C31DEE703F5A6746C
:10453000C3F84841D5E7DAF80000FFF7BFFF4FF0B6
:10454000FF30DCE75004002058550008F8B500BFE4
:10455000F8BC08BC9E467047F8B500BFF8BC08BC64
:044560009E467047BC
:1045640048454C4C4F20574F524C442121000000E9
:104574002A0000004C4544006F6C65640000000094
:104584004341525F534554494E47000054454D50F2
:1045940000000000424D5032383000004245455082
:1045A4000000000078450008000000000000000042
:1045B40000000000000000000002000008000000ED
:1045C40000000000000000007C450008000000001E
:1045D40000000000000000000000000000020000D5
:1045E40018000000000000000000000000000000AF
:1045F40000000000000000000000000000000000B7
:1046040000000000000000000000000000000000A6
:104614000000000000000000000000000000000096
:104624000000000000000000000000000000000086
:104634000000000000000000000000000000000076
:104644000000000000000000000000000000000066
:104654000000000E38000000000000000000000010
:104664000000C01BEC01000000000000000000007E
:104674000000F0349C0F0000000000000000000067
:1046840000001EF4173C00000000000000000000C1
:104694000080E7E1C7E70000000000000000000020
:1046A4000080F1E3E3870100000000000000000047
:1046B40000C038E6630C03000000000000000000A6
:1046C400004099E7F34803000000000000000000E8
:1046D4000060F8E7F30F0200000000000000000093
:1046E4000060F8E7E30F0200000000000000000093
:1046F4000060F073E7070300000000000000000002
:104704000040E0F99F0303000000000000000000E7
:1047140000C0046F7290010000000000000000005F
:104724000080C363C2C3000000000000000000005A
:1047340000007F60027F0000000000000000000015
:104744000000006002000000000000000000000003
:10475400000000F00F000000000000000000000056
:10476400000000100C000000000000000000000029
:10477400000000100C000000000000000000000019
:10478400000000F80F00000000000000000000001E
:1047940000E0FFFFFFFF0300000000000000000036
:1047A40000200000000006000000000000000000DF
:1047B40000E0FFFFFFFF0300000000000000000016
:1047C40000E0FF01FFFF0300000000000000000004
:1047D400006080018300020000000000000000006F
:1047E4000020803F83000200000000000000000061
:1047F40080FF833F83E0FF01000000000000000011
:10480400C0FF871D83E0FF010000000000000000DE
:10481400C000FEFBFF3F000100000000000000009C
:10482400C000FEFFFF3F0001000000000000000088
:10483400C038060000201E01000000000000000037
:10484400C038060000201E01000000000000000027
:10485400C0FF070000E0FF010000000000000000AE
:10486400C0000E0000708001000000000000000085
:10487400C0000E0000300001000000000000000035
:10488400C0380E0000301E010000000000000000CF
:10489400C0380E0000301E010000000000000000BF
:1048A400C0FF0F0000F0FF01000000000000000046
:1048B40080FF0F0000F0FF01000000000000000076
:1048C40000FC0F0000703F0000000000000000002A
:1048D40000FC070000F03F000000000000000000A2
:1048E40000E0070000F003000000000000000000EA
:1048F40000E003D645E803000000000000000000CB
:10490400006000D6454202000000000000000000E4
:1049140000607F7FDFF9020000000000000000005B
:1049240000E0FFFFFFFF07000000000000000000A0
:1049340000E0FFFFFFFF0300000000000000000094
:1049440000E0FFFFFFFF0300000000000000000084
:1049540000200060020002000000000000000000CF
:1049640000200060020006000000000000000000BB
:1049740000E0FF7FFEFF03000000000000000000D5
:1049840000E0FF7FFEFF03000000000000000000C5
:10499400002000600200020000000000000000008F
:1049A400006000700600030000000000000000002A
:1049B40000E0FF3FFEFF0300000000000000007065
:1049C400FEFFFFFFFFFFFF7F0E000000000000005E
:1049D40000000000000000000000000000000000D3
:1049E40000000000000000000000000000000000C3
:1049F400000000000102030406070809000000008B
:104A04000102030402030405060708090A0B0C0D3E
:104A14000E0F10100102000049444C450000000034
:104A2400546D725100000000546D7220537663007F
:104A34005F00020204040304050C0BFFFE08FE08D9
:104A4400FE016A032C0471200500CC09210882C4EC
:104A5400C991F2082207336D4BB202231087447CBC
:104A6400CAA81C3365548E9932AA012410A53C6B44
:104A74001E2AA938E28849A5A1230025158AC49DC8
:104A8400D44A655523554995544649E5A8725600BC
:104A9400261188C4AC862A2395A186494B73A4A504
:104AA400002706316DCA00280BA4B47A8C4ABA7563
:104AB4004601290AA4B44A46D974C91A2A09555C7C
:104AC4006B55AD66042B0B554C6B4671C88C22009C
:104AD4002C0742B4C9480A2D06135CCA002E0622CC
:104AE400C4C9082F0A84C47A99638E3903300E85A9
:104AF40044DB52238D34D24823A905310984459BD4
:104B04009ABE4600320C8544DB52236929F33802ED
:104B1400330E8544DB5223498D461A492D00340B4C
:104B24008544EB95549A636439350D8544CB2BA3A6
:104B340091D14823A905360E8544DB52238FA44620
:104B44001A492D00370A8444CBA1638E2E00380EF7
:104B54008544DB5223A9A5461A492D00390E854404
:104B6400DB52238DA4461E492D003A0752C4C9883E
:104B7400233B0972B4C9882329003C0956CC3B92D3
:104B840036D6583D083554CBD070083E0A56CC8BE7
:104B9400C61A4B1B013F0A8544DBB2A5CCB40940BD
:104BA40012A93CFD465A6698E248FE5432939A1E76
:104BB40011411289433CCAD4C61B468DA21E2366EA
:104BC400A4E608420E8744CC694935A425951C43C4
:104BD4000143108744ECAA47461B6AA8518DE2485A
:104BE40000440F88C4CCADA3565A69A5954E630200
:104BF400450E86C4CB25938A23AA28931C23460EEC
:104C040086C4CB25934C2A8EA8A21E11470E874436
:104C1400ECAA47461BCAA155962B48128944CD4895
:104C24002369A9E518514B2DB51A6904490984C4AF
:104C3400CA48D2D7084A0C86C4EBC81A69E42BCAFE
:104C4400094B1189C4CC88769619A90C8746525B06
:104C5400230E4C0F86C4CBC81A69A4914632C931BD
:104C6400024D158B44CEC823ED995492492599548D
:104C740092D18CD652234E1188C48C5E3ACE3852CF
:104C84004C23C699D54E004F0E8744ECAEF4C8238E
:104C94008FAC729E00500F8744CC694925D5901A79
:104CA4006A3432005113983CEC46396AA595562370
:104CB40049A5D148192A00520D88C4CC2D3DF3D002
:104CC400D235D200530D86C4DB39F2D068E811D74F
:104CD40002540E86C4CB915C51238D34D2230155EA
:104CE4001088C4CC484B471D75D451479D47045682
:104CF4001188C4CC484B479D55462A2395A1C61A12
:104D040057158B44CE486A4919CDA8928A2AA9BC62
:104D140036D21A6909581088C4CC484BC795D1C6F5
:104D24001BA599D511591188C4CC484B679591CAD4
:104D340050638D351C115A0B86C4CB91F57CEB3135
:104D4400025B08A334CA50FE1A5C0C84C44ACE2801
:104D5400679433CA015D08A334CAF2D7105E0A65AA
:104D6400546B4679A65A075F061634CB01600623B6
:104D7400748A14610954C4CA56238D01620E86C410
:104D84008B461A69641D71C4B50063095544DB92EE
:104D94005BA605640E86C4FB461AA931E288232D5E
:104DA4000365095544DB52E34623660C85C4EA5285
:104DB400498EA8CD9100670D86343B8A5339F7D8C4
:104DC400632400680E86C48B461A69641D71C4117D
:104DD40005690A84C49AD470BA46006A09A3B49ACD
:104DE400BDBC46026B0E86448B461A69648D38A29C
:104DF400B2066C0884C4CAF46B046D0D5AC48D9257
:104E0400EA11E5887244036E0B56C48B52471C7139
:104E140044016F0C56C4DB4872C411D54800700DB0
:104E240076B48B52471C718CA4D106710E77B4DB17
:104E3400505249A5A6D250A311720954C48A1A2308
:104E44009A00730954C4DA90230E05740973445A02
:104E540052439902750B56C48B1C71C4919601760A
:104E64000B56C4CBB2A2CA1A4900770C5944CDF2EE
:104E74008A4A65A59109780A56C4CBB2B24ED600C7
:104E8400790D76B4CBB2A2CA1AC9AD11007A08550D
:104E940044CB25CD317B0AA4B4AA9296966E017CAC
:104EA400068146CB217D0AA4B48A96B6922E097E49
:104EB4000726DCDB520B00000004FFFF00000000AB
:104EC4005F0003030404030505100FFEFD0BFD0B37
:104ED400FE01C0044005FA2005008C142109B285A6
:104EE40014074ACC00220843BD15112D012316A72F
:104EF400847891602418099922C148C8140946820B
:104F04009118002417D77C78C18A24328A5062C44D
:104F1400222D42094D2292620C00251FBC845DC2E1
:104F2400A084284A1445A292505814138724C1908F
:104F3400281812C56292605004261ABC847D7491AC
:104F4400582416C521730869141A856434E18856F7
:104F54002A8900270641BD1304280DD47475A19035
:104F640028A4B7982C18290ED47415C1982C26D2CD
:104F740029244A032A0B55B4562929934C21002B82
:104F84000B778C78E1B45B380D002C08527514163D
:104F940009002D07249C1587002E06328514062F40
:104FA4000DB48475996249B1A4580C00300DB784CE
:104FB4005833891ABF49D446003109B58558129A25
:104FC400FE44320DB7843824514DAAA8DBE11033D6
:104FD40010B7843824514D2A9491A534D2840434D2
:104FE40011B78498C2B5882C220A894292A35448E6
:104FF4003511B784389652386524994A69A4090949
:10500400003610B7845824118D2A59A9B195242447
:1050140000370FB784180FC1484C2A942A4AD50088
:105024003811B78438A4118D6689912236A61105EA
:10503400003910B7845814518DADB222A59144247F
:10504400003A0772851426033B09927514268B04D3
:10505400003C0A778CD8C1D1F272003D07379C1806
:10506400F7033E0A778C18E14D8B61003F0EB6843E
:105074003714114928538C033501401DBD849ED635
:10508400E14836922849482A14918822926899283E
:1050940049867248EC20024117BA849B72883C22EC
:1050A4008E8843D1983026B4454551C98C004215A9
:1050B400B9841A3725994826523B0925428950223A
:1050C4003B8C004317BA847B95C850229ECF217233
:1050D400881C22078923435909004419BB841C876F
:1050E400A0702415892562895822968825529170CA
:1050F4007288014517B9841A078950228D88524451
:10510400C1A228284A91468407024616B9841A0780
:105114008950228D885244C1A228280ACAC5540045
:105124004718BB847C95D050248EC82372901C24CD
:105134003C8BA4A2D99014014818BB841C348A5413
:105144002415494552D141241549455291544223CD
:105154004909B485171491FE424A0EB7847944A9CB
:105164005E44129124B4064B17BB841C249230284D
:105174008B8AC292785932150D6533E184544C0EF2
:10518400B9841A64B9BE46A411E181004D24BD84DA
:105194001E54CA74341D45641151441611456411DA
:1051A4005148121285242151481212C55446220234
:1051B4004E1CBB841CD3C934440C4566A1902C14EA
:1051C40013A54D4241527414968C23004F12BB8494
:1051D4007CC5D9482A91F32E918A66C31A005012CD
:1051E400B9841A87906C22940825B2894DAE990A25
:1051F4005119EB6C7CC5D9482A91F332938824A2C7
:1052040011B10E128527F109005217BB841C87A027
:105214006C269409658A5699502654134A6A1300D9
:105224005312B9845A94C84C228D482364E73191AF
:1052340052025416BA841B879268A62D2887C82167
:1052440072881C2287C869005518BB841CC489381D
:10525400240E8943E29038240E8943E298305A039D
:105264005618BA841BB48934248DC982B2A02C2A5E
:10527400094BC292B81C22045724BD841E14CA448C
:10528400260BC96421992C2689488292882428896E
:1052940048829288242A13CBC43219005817BB843D
:1052A4001C25CA50268C8AE292F83C220F4983328C
:1052B400E184545917BA841BB48934260BCAA292C8
:1052C400B0242E87C82172889C065A0FB884198787
:1052D400E19036D53A230E0F035B09D4741526FDED
:1052E40027025C0FB68417D170341C0D47C3D170EC
:1052F400005D09D4741524FD27035E0F77A478E1BB
:10530400E830129388621199005F061774170760DA
:105314000834C516326100610E78845934915856A8
:105324009149442B036213B9841A735D662345893A
:10533400502294C844111200630E77845824118DAE
:105344002A8C884414006413B984BA736D13916869
:10535400229408254291683619650E78845934914F
:105364004478A8CB441500660DB6845623896E256F
:10537400A16E24006710B76CB8928A8C26A9844D5C
:1053840057A1A4026811B9841A735D662335914C40
:105394002413C9240C690AA4843522E9482F046A19
:1053A4000CD56A75EA337DA34826006B11B88419BD
:1053B400639D262215195122134946036C09B484AE
:1053C4001523FD0B016D127E841F93D16C3452534F
:1053D4009229C994642A1C6E1079841A93D9484D71
:1053E4002413C9443209036F0E788459349144C894
:1053F4002811C948007013A96C1A93D948512294F2
:1054040008252395995C4C057113A96C59949068EF
:105414002294082542916836912B13720B778417D6
:105424009315558D3400730A7684373722DB0500D3
:10543400740FA68456D1A0AC24D41411852600750B
:105444001179841AA3914C2413C9443291683619F2
:10545400761078831794892C248B498292A8580655
:1054640077187D831C14CA44260BC964314944123D
:105474009444245199582603780F788419A38948B1
:105484004695D26292D1007914A86B1794892C2482
:105494008B498292A8581C9404A7007A0876841732
:1054A40037BD1D7B0DD57476A298B6D4A04C312A95
:1054B4007C07B1871807027D0FD57416D2A04C3132
:1054C4001A8B690BC9007E0927A43813CA0400008B
:1054D400000004FFFF000000533C0008CB3C000820
:1054E400F13C00081815A115C819FF001815A015DE
:1054F400C019FF001815AE15D5168015A8163F154E
:10550400D316001540158D16141520160015A11577
:10551400C815DA1612158116CF15D916F115DB1632
:1055240040152E15A415A619FF0000001815AF1973
:10553400FF0000001815AE19FF0000000001140A56
:105544006464323200127A000004289610080000C5
:08555400800040002800002047
:08555C006D4400083501000850
:045564001101000829
:10556800844500089045000898450008A0450008B3
:105578000A000A000024F4000100000010000000E6
:10558800AAAAAAAA00000000000000001403002034
:105598007C030020E403002000000000000000005D
:1055A80000000000000000000000000000000000F3
:1055B80000000000000000000000000000000000E3
:1055C80000000000000000000000000000000000D3
:1055D80000000000000000000000000000000000C3
:1055E80000000000000000000000000000000000B3
:1055F80000000000000000000000000000000000A3
:105608000000000000000000000000000000000092
:105618000000000000000000000000000000000082
:105628000000000000000000000000000000000072
:1056380001000000000000000E33CDAB34126DE60F
:10564800ECDE05000B000000000000000000000078
:105658000000000000000000000000000000000042
:105668000000000000000000000000000000000032
:105678000000000000000000000000000000000022
:105688000000000000000000000000000000000012
:0459B800A822002001
:0400000508002FDDE3
:00000001FF
